{
  "contractName": "Ezos",
  "abi": [
    {
      "constant": true,
      "inputs": [
        {
          "name": "",
          "type": "address"
        }
      ],
      "name": "masternodeIndexInArray",
      "outputs": [
        {
          "name": "",
          "type": "uint256"
        }
      ],
      "payable": false,
      "stateMutability": "view",
      "type": "function"
    },
    {
      "constant": true,
      "inputs": [
        {
          "name": "",
          "type": "address"
        }
      ],
      "name": "balanceOf",
      "outputs": [
        {
          "name": "",
          "type": "uint256"
        }
      ],
      "payable": false,
      "stateMutability": "view",
      "type": "function"
    },
    {
      "constant": true,
      "inputs": [
        {
          "name": "",
          "type": "address"
        }
      ],
      "name": "masternodeCheck",
      "outputs": [
        {
          "name": "",
          "type": "bool"
        }
      ],
      "payable": false,
      "stateMutability": "view",
      "type": "function"
    },
    {
      "constant": true,
      "inputs": [
        {
          "name": "",
          "type": "uint256"
        }
      ],
      "name": "blockHasBeenMined",
      "outputs": [
        {
          "name": "",
          "type": "bool"
        }
      ],
      "payable": false,
      "stateMutability": "view",
      "type": "function"
    },
    {
      "constant": true,
      "inputs": [
        {
          "name": "",
          "type": "address"
        },
        {
          "name": "",
          "type": "address"
        }
      ],
      "name": "allowance",
      "outputs": [
        {
          "name": "",
          "type": "uint256"
        }
      ],
      "payable": false,
      "stateMutability": "view",
      "type": "function"
    },
    {
      "inputs": [],
      "payable": false,
      "stateMutability": "nonpayable",
      "type": "constructor"
    },
    {
      "anonymous": false,
      "inputs": [
        {
          "indexed": true,
          "name": "from",
          "type": "address"
        },
        {
          "indexed": true,
          "name": "to",
          "type": "address"
        },
        {
          "indexed": false,
          "name": "value",
          "type": "uint256"
        }
      ],
      "name": "Transfer",
      "type": "event"
    },
    {
      "anonymous": false,
      "inputs": [
        {
          "indexed": true,
          "name": "_owner",
          "type": "address"
        },
        {
          "indexed": true,
          "name": "_spender",
          "type": "address"
        },
        {
          "indexed": false,
          "name": "_value",
          "type": "uint256"
        }
      ],
      "name": "Approval",
      "type": "event"
    },
    {
      "anonymous": false,
      "inputs": [
        {
          "indexed": true,
          "name": "from",
          "type": "address"
        },
        {
          "indexed": false,
          "name": "value",
          "type": "uint256"
        }
      ],
      "name": "Burn",
      "type": "event"
    },
    {
      "anonymous": false,
      "inputs": [
        {
          "indexed": false,
          "name": "value",
          "type": "uint256"
        }
      ],
      "name": "ValueCheck",
      "type": "event"
    },
    {
      "constant": true,
      "inputs": [],
      "name": "getStaticFinney",
      "outputs": [
        {
          "name": "",
          "type": "uint256"
        }
      ],
      "payable": false,
      "stateMutability": "view",
      "type": "function"
    },
    {
      "constant": false,
      "inputs": [],
      "name": "publicMine",
      "outputs": [],
      "payable": true,
      "stateMutability": "payable",
      "type": "function"
    },
    {
      "constant": true,
      "inputs": [],
      "name": "generateRandomNumber",
      "outputs": [
        {
          "name": "_test",
          "type": "uint256"
        }
      ],
      "payable": false,
      "stateMutability": "view",
      "type": "function"
    },
    {
      "constant": true,
      "inputs": [],
      "name": "testRandomCheck",
      "outputs": [
        {
          "name": "",
          "type": "bool"
        }
      ],
      "payable": false,
      "stateMutability": "view",
      "type": "function"
    },
    {
      "constant": true,
      "inputs": [],
      "name": "getRemainingPublicMineSupply",
      "outputs": [
        {
          "name": "_amount",
          "type": "uint256"
        }
      ],
      "payable": false,
      "stateMutability": "view",
      "type": "function"
    },
    {
      "constant": true,
      "inputs": [],
      "name": "getRemainingMasternodeSupply",
      "outputs": [
        {
          "name": "_amount",
          "type": "uint256"
        }
      ],
      "payable": false,
      "stateMutability": "view",
      "type": "function"
    },
    {
      "constant": false,
      "inputs": [],
      "name": "registerMasternode",
      "outputs": [],
      "payable": false,
      "stateMutability": "nonpayable",
      "type": "function"
    },
    {
      "constant": false,
      "inputs": [],
      "name": "claimMasternodeReward",
      "outputs": [],
      "payable": false,
      "stateMutability": "nonpayable",
      "type": "function"
    },
    {
      "constant": true,
      "inputs": [
        {
          "name": "_owner",
          "type": "address"
        }
      ],
      "name": "getCurrentPossibleAmountOfAddress",
      "outputs": [
        {
          "name": "_amount",
          "type": "uint256"
        }
      ],
      "payable": false,
      "stateMutability": "view",
      "type": "function"
    },
    {
      "constant": true,
      "inputs": [
        {
          "name": "_owner",
          "type": "address"
        }
      ],
      "name": "unclaimedEzos",
      "outputs": [
        {
          "name": "_amount",
          "type": "uint256"
        }
      ],
      "payable": false,
      "stateMutability": "view",
      "type": "function"
    },
    {
      "constant": true,
      "inputs": [
        {
          "name": "_owner",
          "type": "address"
        }
      ],
      "name": "getLastTimeRewarded",
      "outputs": [
        {
          "name": "_block",
          "type": "uint256"
        }
      ],
      "payable": false,
      "stateMutability": "view",
      "type": "function"
    },
    {
      "constant": true,
      "inputs": [
        {
          "name": "_owner",
          "type": "address"
        }
      ],
      "name": "checkForMasterNode",
      "outputs": [
        {
          "name": "_state",
          "type": "bool"
        }
      ],
      "payable": false,
      "stateMutability": "view",
      "type": "function"
    },
    {
      "constant": false,
      "inputs": [
        {
          "name": "_to",
          "type": "address"
        },
        {
          "name": "_value",
          "type": "uint256"
        }
      ],
      "name": "transfer",
      "outputs": [
        {
          "name": "success",
          "type": "bool"
        }
      ],
      "payable": false,
      "stateMutability": "nonpayable",
      "type": "function"
    },
    {
      "constant": false,
      "inputs": [
        {
          "name": "_from",
          "type": "address"
        },
        {
          "name": "_to",
          "type": "address"
        },
        {
          "name": "_value",
          "type": "uint256"
        }
      ],
      "name": "transferFrom",
      "outputs": [
        {
          "name": "success",
          "type": "bool"
        }
      ],
      "payable": false,
      "stateMutability": "nonpayable",
      "type": "function"
    },
    {
      "constant": false,
      "inputs": [
        {
          "name": "_spender",
          "type": "address"
        },
        {
          "name": "_value",
          "type": "uint256"
        }
      ],
      "name": "approve",
      "outputs": [
        {
          "name": "success",
          "type": "bool"
        }
      ],
      "payable": false,
      "stateMutability": "nonpayable",
      "type": "function"
    },
    {
      "constant": false,
      "inputs": [
        {
          "name": "_spender",
          "type": "address"
        },
        {
          "name": "_value",
          "type": "uint256"
        },
        {
          "name": "_extraData",
          "type": "bytes"
        }
      ],
      "name": "approveAndCall",
      "outputs": [
        {
          "name": "success",
          "type": "bool"
        }
      ],
      "payable": false,
      "stateMutability": "nonpayable",
      "type": "function"
    },
    {
      "constant": false,
      "inputs": [
        {
          "name": "_value",
          "type": "uint256"
        }
      ],
      "name": "burn",
      "outputs": [
        {
          "name": "success",
          "type": "bool"
        }
      ],
      "payable": false,
      "stateMutability": "nonpayable",
      "type": "function"
    },
    {
      "constant": false,
      "inputs": [
        {
          "name": "_from",
          "type": "address"
        },
        {
          "name": "_value",
          "type": "uint256"
        }
      ],
      "name": "burnFrom",
      "outputs": [
        {
          "name": "success",
          "type": "bool"
        }
      ],
      "payable": false,
      "stateMutability": "nonpayable",
      "type": "function"
    },
    {
      "constant": true,
      "inputs": [],
      "name": "getCurrentEzosBlock",
      "outputs": [
        {
          "name": "",
          "type": "uint256"
        }
      ],
      "payable": false,
      "stateMutability": "view",
      "type": "function"
    },
    {
      "constant": true,
      "inputs": [],
      "name": "getCurrentMiningReward",
      "outputs": [
        {
          "name": "_miningReward",
          "type": "uint256"
        }
      ],
      "payable": false,
      "stateMutability": "view",
      "type": "function"
    },
    {
      "constant": true,
      "inputs": [],
      "name": "getCurrentMasterNodeReward",
      "outputs": [
        {
          "name": "_miningReward",
          "type": "uint256"
        }
      ],
      "payable": false,
      "stateMutability": "view",
      "type": "function"
    },
    {
      "constant": true,
      "inputs": [],
      "name": "getCurrentDif",
      "outputs": [
        {
          "name": "_dif",
          "type": "uint256"
        }
      ],
      "payable": false,
      "stateMutability": "view",
      "type": "function"
    },
    {
      "constant": false,
      "inputs": [],
      "name": "adjustRewards",
      "outputs": [],
      "payable": false,
      "stateMutability": "nonpayable",
      "type": "function"
    },
    {
      "constant": false,
      "inputs": [
        {
          "name": "_diff",
          "type": "uint256"
        }
      ],
      "name": "adjustDifficulty",
      "outputs": [],
      "payable": false,
      "stateMutability": "nonpayable",
      "type": "function"
    }
  ],
  "bytecode": "0x60806040526012600260006101000a81548160ff021916908360ff16021790555060006009556000600a5566038d7ea4c68000600c556000600d55600a600e5573b8a33997f1ecea0191b520a8aef82926f2c28cf2601060006101000a81548173ffffffffffffffffffffffffffffffffffffffff021916908373ffffffffffffffffffffffffffffffffffffffff160217905550600a601155348015620000a657600080fd5b50600260009054906101000a900460ff1660ff16600a0a630c84588002600381905550600354601260003073ffffffffffffffffffffffffffffffffffffffff1673ffffffffffffffffffffffffffffffffffffffff168152602001908152602001600020819055506040805190810160405280600481526020017f457a6f7300000000000000000000000000000000000000000000000000000000815250600090805190602001906200015c929190620002b0565b506040805190810160405280600481526020017f4c494c4b0000000000000000000000000000000000000000000000000000000081525060019080519060200190620001aa929190620002b0565b504360048190555043600581905550620001dc60035460026200027a6401000000000262002480176401000000009004565b60078190555062000206600354600754620002966401000000000262002106176401000000009004565b60088190555033600f60006101000a81548173ffffffffffffffffffffffffffffffffffffffff021916908373ffffffffffffffffffffffffffffffffffffffff1602179055506007600b81905550600260009054906101000a900460ff1660ff16600a0a6032026006819055506200035f565b60008082848115156200028957fe5b0490508091505092915050565b6000828211151515620002a557fe5b818303905092915050565b828054600181600116156101000203166002900490600052602060002090601f016020900481019282601f10620002f357805160ff191683800117855562000324565b8280016001018555821562000324579182015b828111156200032357825182559160200191906001019062000306565b5b50905062000333919062000337565b5090565b6200035c91905b80821115620003585760008160009055506001016200033e565b5090565b90565b612558806200036f6000396000f300608060405260043610610175576000357c0100000000000000000000000000000000000000000000000000000000900463ffffffff16806304cdc5421461017a578063095ea7b3146101915780630ad61b5f146101f65780630ee0783614610221578063226e4d9c1461024e57806323b872dd1461026557806326f00c4d146102ea5780633cb1da701461034557806342966c681461039c578063617459e5146103e157806368c646891461040c57806370a0823114610437578063773a11541461048e57806379cc6790146104b95780637cd55bd91461051e5780638eff3ef0146105495780639e4d1b2b14610578578063a3f43d2414610582578063a43bd09c146105dd578063a9059cbb14610608578063b1a4904e1461066d578063b61a125e14610684578063c28b72e1146106c9578063cae9ca51146106f4578063d8268ade1461079f578063dd62ed3e146107f6578063f12389f51461086d578063f31ac52014610898578063f7db31f1146108ef575b600080fd5b34801561018657600080fd5b5061018f610946565b005b34801561019d57600080fd5b506101dc600480360381019080803573ffffffffffffffffffffffffffffffffffffffff16906020019092919080359060200190929190505050610b1b565b604051808215151515815260200191505060405180910390f35b34801561020257600080fd5b5061020b610c0d565b6040518082815260200191505060405180910390f35b34801561022d57600080fd5b5061024c60048036038101908080359060200190929190505050610c17565b005b34801561025a57600080fd5b50610263610c7d565b005b34801561027157600080fd5b506102d0600480360381019080803573ffffffffffffffffffffffffffffffffffffffff169060200190929190803573ffffffffffffffffffffffffffffffffffffffff16906020019092919080359060200190929190505050610d46565b604051808215151515815260200191505060405180910390f35b3480156102f657600080fd5b5061032b600480360381019080803573ffffffffffffffffffffffffffffffffffffffff169060200190929190505050610e73565b604051808215151515815260200191505060405180910390f35b34801561035157600080fd5b50610386600480360381019080803573ffffffffffffffffffffffffffffffffffffffff169060200190929190505050610ecc565b6040518082815260200191505060405180910390f35b3480156103a857600080fd5b506103c760048036038101908080359060200190929190505050610ee4565b604051808215151515815260200191505060405180910390f35b3480156103ed57600080fd5b506103f6610fe8565b6040518082815260200191505060405180910390f35b34801561041857600080fd5b50610421610ff2565b6040518082815260200191505060405180910390f35b34801561044357600080fd5b50610478600480360381019080803573ffffffffffffffffffffffffffffffffffffffff169060200190929190505050610ffc565b6040518082815260200191505060405180910390f35b34801561049a57600080fd5b506104a3611014565b6040518082815260200191505060405180910390f35b3480156104c557600080fd5b50610504600480360381019080803573ffffffffffffffffffffffffffffffffffffffff16906020019092919080359060200190929190505050611039565b604051808215151515815260200191505060405180910390f35b34801561052a57600080fd5b50610533611253565b6040518082815260200191505060405180910390f35b34801561055557600080fd5b5061055e61125d565b604051808215151515815260200191505060405180910390f35b610580611285565b005b34801561058e57600080fd5b506105c3600480360381019080803573ffffffffffffffffffffffffffffffffffffffff1690602001909291905050506117cd565b604051808215151515815260200191505060405180910390f35b3480156105e957600080fd5b506105f26117ed565b6040518082815260200191505060405180910390f35b34801561061457600080fd5b50610653600480360381019080803573ffffffffffffffffffffffffffffffffffffffff169060200190929190803590602001909291905050506117f7565b604051808215151515815260200191505060405180910390f35b34801561067957600080fd5b5061068261180e565b005b34801561069057600080fd5b506106af60048036038101908080359060200190929190505050611a38565b604051808215151515815260200191505060405180910390f35b3480156106d557600080fd5b506106de611a58565b6040518082815260200191505060405180910390f35b34801561070057600080fd5b50610785600480360381019080803573ffffffffffffffffffffffffffffffffffffffff16906020019092919080359060200190929190803590602001908201803590602001908080601f0160208091040260200160405190810160405280939291908181526020018383808284378201915050505050509192919290505050611a76565b604051808215151515815260200191505060405180910390f35b3480156107ab57600080fd5b506107e0600480360381019080803573ffffffffffffffffffffffffffffffffffffffff169060200190929190505050611bf9565b6040518082815260200191505060405180910390f35b34801561080257600080fd5b50610857600480360381019080803573ffffffffffffffffffffffffffffffffffffffff169060200190929190803573ffffffffffffffffffffffffffffffffffffffff169060200190929190505050611da7565b6040518082815260200191505060405180910390f35b34801561087957600080fd5b50610882611dcc565b6040518082815260200191505060405180910390f35b3480156108a457600080fd5b506108d9600480360381019080803573ffffffffffffffffffffffffffffffffffffffff169060200190929190505050611dd6565b6040518082815260200191505060405180910390f35b3480156108fb57600080fd5b50610930600480360381019080803573ffffffffffffffffffffffffffffffffffffffff169060200190929190505050611e44565b6040518082815260200191505060405180910390f35b6000601560003373ffffffffffffffffffffffffffffffffffffffff1673ffffffffffffffffffffffffffffffffffffffff16815260200190815260200160002060009054906101000a900460ff1615156109a057600080fd5b60006008541115156109b157600080fd5b6109ba33611ffb565b90503073ffffffffffffffffffffffffffffffffffffffff1663a9059cbb33836040518363ffffffff167c0100000000000000000000000000000000000000000000000000000000028152600401808373ffffffffffffffffffffffffffffffffffffffff1673ffffffffffffffffffffffffffffffffffffffff16815260200182815260200192505050602060405180830381600087803b158015610a5f57600080fd5b505af1158015610a73573d6000803e3d6000fd5b505050506040513d6020811015610a8957600080fd5b810190808051906020019092919050505050610aa3611a58565b6017601660003373ffffffffffffffffffffffffffffffffffffffff1673ffffffffffffffffffffffffffffffffffffffff16815260200190815260200160002054815481101515610af157fe5b906000526020600020906003020160020181905550610b1260085482612106565b60088190555050565b600081601360003373ffffffffffffffffffffffffffffffffffffffff1673ffffffffffffffffffffffffffffffffffffffff16815260200190815260200160002060008573ffffffffffffffffffffffffffffffffffffffff1673ffffffffffffffffffffffffffffffffffffffff168152602001908152602001600020819055508273ffffffffffffffffffffffffffffffffffffffff163373ffffffffffffffffffffffffffffffffffffffff167f8c5be1e5ebec7d5bd14f71427d1e84f3dd0314c0f7b2291e5b200ac8c7c3b925846040518082815260200191505060405180910390a36001905092915050565b6000600654905090565b600f60009054906101000a900473ffffffffffffffffffffffffffffffffffffffff1673ffffffffffffffffffffffffffffffffffffffff163373ffffffffffffffffffffffffffffffffffffffff16141515610c7357600080fd5b8060118190555050565b6000610c87611a58565b9050600a81118015610c995750606481105b15610cc657600260009054906101000a900460ff1660ff16600a0a6028026006819055506005600b819055505b606481118015610cd757506103e881105b15610d0457600260009054906101000a900460ff1660ff16600a0a601e026006819055506004600b819055505b6103e881118015610d16575061271081105b15610d4357600260009054906101000a900460ff1660ff16600a0a6014026006819055506003600b819055505b50565b6000601360008573ffffffffffffffffffffffffffffffffffffffff1673ffffffffffffffffffffffffffffffffffffffff16815260200190815260200160002060003373ffffffffffffffffffffffffffffffffffffffff1673ffffffffffffffffffffffffffffffffffffffff168152602001908152602001600020548211151515610dd357600080fd5b81601360008673ffffffffffffffffffffffffffffffffffffffff1673ffffffffffffffffffffffffffffffffffffffff16815260200190815260200160002060003373ffffffffffffffffffffffffffffffffffffffff1673ffffffffffffffffffffffffffffffffffffffff16815260200190815260200160002060008282540392505081905550610e6884848461211f565b600190509392505050565b6000601560008373ffffffffffffffffffffffffffffffffffffffff1673ffffffffffffffffffffffffffffffffffffffff16815260200190815260200160002060009054906101000a900460ff169050809050919050565b60166020528060005260406000206000915090505481565b600081601260003373ffffffffffffffffffffffffffffffffffffffff1673ffffffffffffffffffffffffffffffffffffffff1681526020019081526020016000205410151515610f3457600080fd5b81601260003373ffffffffffffffffffffffffffffffffffffffff1673ffffffffffffffffffffffffffffffffffffffff16815260200190815260200160002060008282540392505081905550816003600082825403925050819055503373ffffffffffffffffffffffffffffffffffffffff167fcc16f5dbb4873280815c1ee09dbd06736cffcc184412cf7a71a0fdb75d397ca5836040518082815260200191505060405180910390a260019050919050565b6000600b54905090565b6000600754905090565b60126020528060005260406000206000915090505481565b600080600160115460014303406001900481151561102e57fe5b060190508091505090565b600081601260008573ffffffffffffffffffffffffffffffffffffffff1673ffffffffffffffffffffffffffffffffffffffff168152602001908152602001600020541015151561108957600080fd5b601360008473ffffffffffffffffffffffffffffffffffffffff1673ffffffffffffffffffffffffffffffffffffffff16815260200190815260200160002060003373ffffffffffffffffffffffffffffffffffffffff1673ffffffffffffffffffffffffffffffffffffffff16815260200190815260200160002054821115151561111457600080fd5b81601260008573ffffffffffffffffffffffffffffffffffffffff1673ffffffffffffffffffffffffffffffffffffffff1681526020019081526020016000206000828254039250508190555081601360008573ffffffffffffffffffffffffffffffffffffffff1673ffffffffffffffffffffffffffffffffffffffff16815260200190815260200160002060003373ffffffffffffffffffffffffffffffffffffffff1673ffffffffffffffffffffffffffffffffffffffff16815260200190815260200160002060008282540392505081905550816003600082825403925050819055508273ffffffffffffffffffffffffffffffffffffffff167fcc16f5dbb4873280815c1ee09dbd06736cffcc184412cf7a71a0fdb75d397ca5836040518082815260200191505060405180910390a26001905092915050565b6000600c54905090565b600080611268611014565b9050600581111561127c5760019150611281565b600091505b5090565b60065460075411151561129757600080fd5b61129f610c0d565b6006819055506112b0600654612436565b600981905550600c54341115611522573073ffffffffffffffffffffffffffffffffffffffff1663a9059cbb336009546040518363ffffffff167c0100000000000000000000000000000000000000000000000000000000028152600401808373ffffffffffffffffffffffffffffffffffffffff1673ffffffffffffffffffffffffffffffffffffffff16815260200182815260200192505050602060405180830381600087803b15801561136557600080fd5b505af1158015611379573d6000803e3d6000fd5b505050506040513d602081101561138f57600080fd5b8101908080519060200190929190505050503073ffffffffffffffffffffffffffffffffffffffff1663a9059cbb601060009054906101000a900473ffffffffffffffffffffffffffffffffffffffff166009546040518363ffffffff167c0100000000000000000000000000000000000000000000000000000000028152600401808373ffffffffffffffffffffffffffffffffffffffff1673ffffffffffffffffffffffffffffffffffffffff16815260200182815260200192505050602060405180830381600087803b15801561146857600080fd5b505af115801561147c573d6000803e3d6000fd5b505050506040513d602081101561149257600080fd5b810190808051906020019092919050505050601060009054906101000a900473ffffffffffffffffffffffffffffffffffffffff1673ffffffffffffffffffffffffffffffffffffffff166108fc349081150290604051600060405180830381858888f1935050505015801561150c573d6000803e3d6000fd5b5061151b600754600954612106565b6007819055505b600c543410156117cb576000151561153861125d565b15151415611552576001600d600082825401925050819055505b6001151561155e61125d565b151514156117ca57611571600654612457565b600a81905550600015156014600043815260200190815260200160002060009054906101000a900460ff16151514156117c95760016014600043815260200190815260200160002060006101000a81548160ff0219169083151502179055503073ffffffffffffffffffffffffffffffffffffffff1663a9059cbb33600a546040518363ffffffff167c0100000000000000000000000000000000000000000000000000000000028152600401808373ffffffffffffffffffffffffffffffffffffffff1673ffffffffffffffffffffffffffffffffffffffff16815260200182815260200192505050602060405180830381600087803b15801561167557600080fd5b505af1158015611689573d6000803e3d6000fd5b505050506040513d602081101561169f57600080fd5b8101908080519060200190929190505050503073ffffffffffffffffffffffffffffffffffffffff1663a9059cbb601060009054906101000a900473ffffffffffffffffffffffffffffffffffffffff166009546040518363ffffffff167c0100000000000000000000000000000000000000000000000000000000028152600401808373ffffffffffffffffffffffffffffffffffffffff1673ffffffffffffffffffffffffffffffffffffffff16815260200182815260200192505050602060405180830381600087803b15801561177857600080fd5b505af115801561178c573d6000803e3d6000fd5b505050506040513d60208110156117a257600080fd5b8101908080519060200190929190505050506117c2600754600654612106565b6007819055505b5b5b565b60156020528060005260406000206000915054906101000a900460ff1681565b6000601154905090565b600061180433848461211f565b6001905092915050565b60006118186124f4565b601560003373ffffffffffffffffffffffffffffffffffffffff1673ffffffffffffffffffffffffffffffffffffffff16815260200190815260200160002060009054906101000a900460ff1615151561187157600080fd5b600a601260003373ffffffffffffffffffffffffffffffffffffffff1673ffffffffffffffffffffffffffffffffffffffff168152602001908152602001600020541115156118bf57600080fd5b6118c7611a58565b91506060604051908101604052803373ffffffffffffffffffffffffffffffffffffffff1681526020018381526020018381525090506001601560003373ffffffffffffffffffffffffffffffffffffffff1673ffffffffffffffffffffffffffffffffffffffff16815260200190815260200160002060006101000a81548160ff0219169083151502179055506017819080600181540180825580915050906001820390600052602060002090600302016000909192909190915060008201518160000160006101000a81548173ffffffffffffffffffffffffffffffffffffffff021916908373ffffffffffffffffffffffffffffffffffffffff16021790555060208201518160010155604082015181600201555050506119f16017805490506001612106565b601660003373ffffffffffffffffffffffffffffffffffffffff1673ffffffffffffffffffffffffffffffffffffffff168152602001908152602001600020819055505050565b60146020528060005260406000206000915054906101000a900460ff1681565b6000806000611a65612478565b915060045482039050809250505090565b600080849050611a868585610b1b565b15611bf0578073ffffffffffffffffffffffffffffffffffffffff16638f4ffcb1338630876040518563ffffffff167c0100000000000000000000000000000000000000000000000000000000028152600401808573ffffffffffffffffffffffffffffffffffffffff1673ffffffffffffffffffffffffffffffffffffffff1681526020018481526020018373ffffffffffffffffffffffffffffffffffffffff1673ffffffffffffffffffffffffffffffffffffffff16815260200180602001828103825283818151815260200191508051906020019080838360005b83811015611b80578082015181840152602081019050611b65565b50505050905090810190601f168015611bad5780820380516001836020036101000a031916815260200191505b5095505050505050600060405180830381600087803b158015611bcf57600080fd5b505af1158015611be3573d6000803e3d6000fd5b5050505060019150611bf1565b5b509392505050565b600080600080601560008673ffffffffffffffffffffffffffffffffffffffff1673ffffffffffffffffffffffffffffffffffffffff16815260200190815260200160002060009054906101000a900460ff161515611c5757600093505b601560008673ffffffffffffffffffffffffffffffffffffffff1673ffffffffffffffffffffffffffffffffffffffff16815260200190815260200160002060009054906101000a900460ff161515611d9c57611d1a611cb5611a58565b6017601660008973ffffffffffffffffffffffffffffffffffffffff1673ffffffffffffffffffffffffffffffffffffffff16815260200190815260200160002054815481101515611d0357fe5b906000526020600020906003020160020154612106565b9250611d2883600e54612480565b9150600090505b81811015611d9b57611d8c611d85601260008873ffffffffffffffffffffffffffffffffffffffff1673ffffffffffffffffffffffffffffffffffffffff16815260200190815260200160002054600b5461249b565b6064612480565b93508080600101915050611d2f565b5b839350505050919050565b6013602052816000526040600020602052806000526040600020600091509150505481565b6000600854905090565b600080601660008473ffffffffffffffffffffffffffffffffffffffff1673ffffffffffffffffffffffffffffffffffffffff168152602001908152602001600020549050601781815481101515611e2a57fe5b906000526020600020906003020160020154915050919050565b600080600080601560008673ffffffffffffffffffffffffffffffffffffffff1673ffffffffffffffffffffffffffffffffffffffff16815260200190815260200160002060009054906101000a900460ff161515611ea257600093505b601560008673ffffffffffffffffffffffffffffffffffffffff1673ffffffffffffffffffffffffffffffffffffffff16815260200190815260200160002060009054906101000a900460ff161515611ff057611f65611f00611a58565b6017601660008973ffffffffffffffffffffffffffffffffffffffff1673ffffffffffffffffffffffffffffffffffffffff16815260200190815260200160002054815481101515611f4e57fe5b906000526020600020906003020160020154612106565b9250611f7383600e54612480565b9150600090505b81811015611fef57611fe084611fdb611fd4601260008a73ffffffffffffffffffffffffffffffffffffffff1673ffffffffffffffffffffffffffffffffffffffff16815260200190815260200160002054600b5461249b565b6064612480565b6124d6565b93508080600101915050611f7a565b5b839350505050919050565b60008060008061207161200c611a58565b6017601660008973ffffffffffffffffffffffffffffffffffffffff1673ffffffffffffffffffffffffffffffffffffffff1681526020019081526020016000205481548110151561205a57fe5b906000526020600020906003020160020154612106565b925061207f83600e54612480565b9150600090505b818110156120fb576120ec846120e76120e0601260008a73ffffffffffffffffffffffffffffffffffffffff1673ffffffffffffffffffffffffffffffffffffffff16815260200190815260200160002054600b5461249b565b6064612480565b6124d6565b93508080600101915050612086565b839350505050919050565b600082821115151561211457fe5b818303905092915050565b6000808373ffffffffffffffffffffffffffffffffffffffff161415151561214657600080fd5b81601260008673ffffffffffffffffffffffffffffffffffffffff1673ffffffffffffffffffffffffffffffffffffffff168152602001908152602001600020541015151561219457600080fd5b601260008473ffffffffffffffffffffffffffffffffffffffff1673ffffffffffffffffffffffffffffffffffffffff1681526020019081526020016000205482601260008673ffffffffffffffffffffffffffffffffffffffff1673ffffffffffffffffffffffffffffffffffffffff16815260200190815260200160002054011015151561222357600080fd5b601260008473ffffffffffffffffffffffffffffffffffffffff1673ffffffffffffffffffffffffffffffffffffffff16815260200190815260200160002054601260008673ffffffffffffffffffffffffffffffffffffffff1673ffffffffffffffffffffffffffffffffffffffff1681526020019081526020016000205401905081601260008673ffffffffffffffffffffffffffffffffffffffff1673ffffffffffffffffffffffffffffffffffffffff1681526020019081526020016000206000828254039250508190555081601260008573ffffffffffffffffffffffffffffffffffffffff1673ffffffffffffffffffffffffffffffffffffffff168152602001908152602001600020600082825401925050819055508273ffffffffffffffffffffffffffffffffffffffff168473ffffffffffffffffffffffffffffffffffffffff167fddf252ad1be2c89b69c2b068fc378daa952ba7f163c4a11628f55a4df523b3ef846040518082815260200191505060405180910390a380601260008573ffffffffffffffffffffffffffffffffffffffff1673ffffffffffffffffffffffffffffffffffffffff16815260200190815260200160002054601260008773ffffffffffffffffffffffffffffffffffffffff1673ffffffffffffffffffffffffffffffffffffffff168152602001908152602001600020540114151561243057fe5b50505050565b600061244d61244683601461249b565b6064612480565b9050809050919050565b600061246e61246783605061249b565b6064612480565b9050809050919050565b600043905090565b600080828481151561248e57fe5b0490508091505092915050565b60008060008414156124b057600091506124cf565b82840290508284828115156124c157fe5b041415156124cb57fe5b8091505b5092915050565b60008082840190508381101515156124ea57fe5b8091505092915050565b606060405190810160405280600073ffffffffffffffffffffffffffffffffffffffff168152602001600081526020016000815250905600a165627a7a72305820db92099d47fc969e06d682626040f40d72b9844188d76423529106fbb9593d890029",
  "source": "pragma solidity ^0.4.24;\n\ninterface tokenRecipient { function receiveApproval(address _from, uint256 _value, address _token, bytes _extraData) external; }\n\ncontract Ezos {\n\n/***************************************************************************************/\n/***************************************************************************************/\n/********************************* VARIABLES START *************************************/\n/***************************************************************************************/\n/***************************************************************************************/\n\n    string name;\n    string symbol;\n    uint8 decimals = 18;\n    uint256 totalSupply;\n\n    uint256 ezosGenesisBlock;\n    uint256 lastBlock;\n\n    uint256 miningReward;\n    uint256 publicMineSupply;\n    uint256 masternodeSupply;\n    uint256 smallReward = 0;\n    uint256 bigReward = 0;\n    uint256 masternodeRate;\n\n    uint256 staticFinney = 1 finney;\n\n    uint256 failedMiningAttemps = 0;\n    uint256 masterNodeBlocktime = 10;\n\n    address owner;\n\n    address ezos = 0xB8a33997F1eceA0191b520a8AEf82926F2c28Cf2;\n\n    /*The higher, he harder to hit the block*/\n    uint256 difficulty = 10;\n\n/***************************************************************************************/\n/***************************************************************************************/\n/********************************** VARIABLES END **************************************/\n/***************************************************************************************/\n/***************************************************************************************/\n\n\n/***************************************************************************************/\n/***************************************************************************************/\n/********************************** MAPPINGS START *************************************/\n/***************************************************************************************/\n/***************************************************************************************/\n\n    mapping (address => uint256) public balanceOf;\n    mapping (address => mapping (address => uint256)) public allowance;\n    mapping (uint256 => bool) public blockHasBeenMined;\n\n    mapping (address => bool) public masternodeCheck;\n    mapping (address => uint256) public masternodeIndexInArray;\n\n\n/***************************************************************************************/\n/***************************************************************************************/\n/********************************** MAPPINGS END ***************************************/\n/***************************************************************************************/\n/***************************************************************************************/\n\n    event Transfer(address indexed from, address indexed to, uint256 value);\n    event Approval(address indexed _owner, address indexed _spender, uint256 _value);\n    event Burn(address indexed from, uint256 value);\n    event ValueCheck(uint256 value);\n\n/***************************************************************************************/\n/***************************************************************************************/\n/********************************** MODIFIERS START *************************************/\n/***************************************************************************************/\n/***************************************************************************************/\n\n    modifier onlyOwner {\n        require(msg.sender == owner);\n        _;\n    }\n\n    modifier onlyMasterNode {\n        require(masternodeCheck[msg.sender]);\n        _;\n    }\n\n    modifier remainingNodeSupplyChecky{\n        require(masternodeSupply > 0);\n        _;\n    }\n\n    modifier remainingMineSupplyCheck{\n        require(publicMineSupply > miningReward);\n        _;\n    }\n\n    modifier nodePotentialCheck{\n        require(!masternodeCheck[msg.sender]);\n        require(balanceOf[msg.sender] > 10);\n        _;\n    }\n\n/***************************************************************************************/\n/***************************************************************************************/\n/*********************************** MODIFIERS END *************************************/\n/***************************************************************************************/\n/***************************************************************************************/\n\n/***************************************************************************************/\n/***************************************************************************************/\n/********************************* DATATYPES START *************************************/\n/***************************************************************************************/\n/***************************************************************************************/\n\n    struct Masternode{\n        address userAddress;\n        uint256 registeredAt;\n        uint256 lastTimeRewarded;\n    }\n\n    Masternode[] private masternode;\n\n/***************************************************************************************/\n/***************************************************************************************/\n/*********************************** DATATYPES END *************************************/\n/***************************************************************************************/\n/***************************************************************************************/\n\n/***************************************************************************************/\n/***************************************************************************************/\n/********************************* CONSTRUCTOR START ***********************************/\n/***************************************************************************************/\n/***************************************************************************************/\n\n    constructor() public {\n        totalSupply = 210000000 * 10 ** uint256(decimals);  // Update total supply with the decimal amount\n        balanceOf[this] = totalSupply;                // Give the creator all initial tokens\n        name = \"Ezos\";                                   // Set the name for display purposes\n        symbol = \"LILK\";                               // Set the symbol for display purposes\n        ezosGenesisBlock = block.number;\n        lastBlock = block.number;\n        publicMineSupply = SafeMath.div(totalSupply,2);\n        masternodeSupply = SafeMath.sub(totalSupply, publicMineSupply);\n        owner = msg.sender;\n        masternodeRate = 7;\n        miningReward = 50 * 10 ** uint256(decimals);\n    }\n\n/***************************************************************************************/\n/***************************************************************************************/\n/*********************************** CONSTRUCTOR END ***********************************/\n/***************************************************************************************/\n/***************************************************************************************/\n\n    function getStaticFinney() public view returns (uint){\n        return staticFinney;\n    }\n\n/***************************************************************************************/\n/***************************************************************************************/\n/************************************ MINING START *************************************/\n/***************************************************************************************/\n/***************************************************************************************/\n\n    function calcSmallReward(uint256 _miningReward) private pure returns(uint256 _reward){\n        _reward=SafeMath.div(SafeMath.mul(_miningReward, 20),100);\n        return _reward;\n    }\n\n     function calcBigReward(uint256 _miningReward) private pure returns(uint256 _reward){\n        _reward=SafeMath.div(SafeMath.mul(_miningReward, 80),100);\n        return _reward;\n    }\n\n    function publicMine() public payable remainingMineSupplyCheck{\n\n        miningReward = getCurrentMiningReward();\n        smallReward = calcSmallReward(miningReward);\n\n        if(msg.value > staticFinney) {\n            this.transfer(msg.sender, smallReward);\n            this.transfer(ezos, smallReward);\n            ezos.transfer(msg.value);\n            publicMineSupply = SafeMath.sub(publicMineSupply,smallReward);\n        }\n\n        if(msg.value < staticFinney){\n\n            if(testRandomCheck() == false){\n\n                failedMiningAttemps += 1;\n\n            }\n\n            if(testRandomCheck() == true){\n\n                bigReward = calcBigReward(miningReward);\n\n                if(blockHasBeenMined[block.number] == false){\n\n                blockHasBeenMined[block.number] = true;\n\n                this.transfer(msg.sender, bigReward);\n                this.transfer(ezos, smallReward);\n\n                publicMineSupply = SafeMath.sub(publicMineSupply,miningReward);\n\n                }\n            }\n        }\n    }\n\n    function generateRandomNumber() public view returns(uint256 _test){\n        uint newNounce = uint(blockhash(block.number-1))%difficulty + 1;\n        return newNounce;\n    }\n\n    function testRandomCheck() public view returns (bool){\n        uint256 nounce = generateRandomNumber();\n        if (nounce > 5){\n            return true;\n        } else {\n            return false;\n        }\n    }\n\n    function getRemainingPublicMineSupply() public view returns (uint256 _amount){\n        return publicMineSupply;\n    }\n\n    function getRemainingMasternodeSupply() public view returns (uint256 _amount){\n        return masternodeSupply;\n    }\n\n/***************************************************************************************/\n/***************************************************************************************/\n/************************************ MINING START *************************************/\n/***************************************************************************************/\n/***************************************************************************************/\n\n/***************************************************************************************/\n/***************************************************************************************/\n/********************************** MASTERNODE START ***********************************/\n/***************************************************************************************/\n/***************************************************************************************/\n\n    function registerMasternode() public nodePotentialCheck{\n\n        uint256 currentEzosBlock = getCurrentEzosBlock();\n\n        Masternode memory _masternode = Masternode({\n            userAddress: msg.sender,\n            registeredAt: currentEzosBlock,\n            lastTimeRewarded: currentEzosBlock\n        });\n\n        masternodeCheck[msg.sender] = true;\n\n        masternode.push(_masternode);\n\n        masternodeIndexInArray[msg.sender] = SafeMath.sub(masternode.length,1);\n\n    }\n\n    function claimMasternodeReward() public onlyMasterNode remainingNodeSupplyChecky{\n\n        uint256 interest = amountToClaim(msg.sender);\n\n        this.transfer(msg.sender, interest);\n\n        masternode[masternodeIndexInArray[msg.sender]].lastTimeRewarded = getCurrentEzosBlock();\n\n        masternodeSupply = SafeMath.sub(masternodeSupply, interest);\n\n    }\n\n    function amountToClaim(address _owner) private view returns(uint256 rate){\n\n        uint256 blockstopay = SafeMath.sub(getCurrentEzosBlock(),masternode[masternodeIndexInArray[_owner]].lastTimeRewarded);\n\n        uint256 rewardTimes = SafeMath.div(blockstopay, masterNodeBlocktime);\n\n        for (uint256 x = 0; x < rewardTimes; x++){\n            rate = SafeMath.add(rate, SafeMath.div(SafeMath.mul(balanceOf[_owner], masternodeRate),100));\n        }\n\n        return rate;\n    }\n\n    function getCurrentPossibleAmountOfAddress(address _owner) public view returns(uint256 _amount){\n\n         if(!masternodeCheck[_owner]){\n            _amount = 0;\n        }\n\n        if(!masternodeCheck[_owner]){\n         uint256 blockstopay = SafeMath.sub(getCurrentEzosBlock(),masternode[masternodeIndexInArray[_owner]].lastTimeRewarded);\n\n        uint256 rewardTimes = SafeMath.div(blockstopay, masterNodeBlocktime);\n\n        for (uint256 x = 0; x < rewardTimes; x++){\n            _amount = SafeMath.add(_amount, SafeMath.div(SafeMath.mul(balanceOf[_owner], masternodeRate),100));\n        }\n        }\n\n         return _amount;\n    }\n\n    function unclaimedEzos (address _owner) public view returns(uint256 _amount){\n\n        if(!masternodeCheck[_owner]){\n            _amount = 0;\n        }\n\n        if(!masternodeCheck[_owner]){\n         uint256 blockstopay = SafeMath.sub(getCurrentEzosBlock(),masternode[masternodeIndexInArray[_owner]].lastTimeRewarded);\n\n        uint256 rewardTimes = SafeMath.div(blockstopay, masterNodeBlocktime);\n\n        for (uint256 x = 0; x < rewardTimes; x++){\n            _amount = SafeMath.div(SafeMath.mul(balanceOf[_owner], masternodeRate),100);\n        }\n        }\n\n         return _amount;\n    }\n\n    // function calcAmountToClaim() mit mapping?\n\n    function getLastTimeRewarded(address _owner) public view returns (uint256 _block){\n        uint256 index = masternodeIndexInArray[_owner];\n        return masternode[index].lastTimeRewarded;\n\n    }\n\n    function checkForMasterNode(address _owner) public view returns (bool _state){\n       _state = masternodeCheck[_owner];\n       return _state;\n    }\n\n/***************************************************************************************/\n/***************************************************************************************/\n/********************************** MASTERNODE END *************************************/\n/***************************************************************************************/\n/***************************************************************************************/\n\n    /**\n     * Internal transfer, only can be called by this contract\n     */\n    function _transfer(address _from, address _to, uint _value) internal {\n        // Prevent transfer to 0x0 address. Use burn() instead\n        require(_to != 0x0);\n        // Check if the sender has enough\n        require(balanceOf[_from] >= _value);\n        // Check for overflows\n        require(balanceOf[_to] + _value >= balanceOf[_to]);\n        // Save this for an assertion in the future\n        uint previousBalances = balanceOf[_from] + balanceOf[_to];\n        // Subtract from the sender\n        balanceOf[_from] -= _value;\n        // Add the same to the recipient\n        balanceOf[_to] += _value;\n        emit Transfer(_from, _to, _value);\n        // Asserts are used to use static analysis to find bugs in your code. They should never fail\n        assert(balanceOf[_from] + balanceOf[_to] == previousBalances);\n    }\n\n    /**\n     * Transfer tokens\n     *\n     * Send `_value` tokens to `_to` from your account\n     *\n     * @param _to The address of the recipient\n     * @param _value the amount to send\n     */\n    function transfer(address _to, uint256 _value) public returns (bool success) {\n        _transfer(msg.sender, _to, _value);\n        return true;\n    }\n\n    /**\n     * Transfer tokens from other address\n     *\n     * Send `_value` tokens to `_to` on behalf of `_from`\n     *\n     * @param _from The address of the sender\n     * @param _to The address of the recipient\n     * @param _value the amount to send\n     */\n    function transferFrom(address _from, address _to, uint256 _value) public returns (bool success) {\n        require(_value <= allowance[_from][msg.sender]);     // Check allowance\n        allowance[_from][msg.sender] -= _value;\n        _transfer(_from, _to, _value);\n        return true;\n    }\n\n    /**\n     * Set allowance for other address\n     *\n     * Allows `_spender` to spend no more than `_value` tokens on your behalf\n     *\n     * @param _spender The address authorized to spend\n     * @param _value the max amount they can spend\n     */\n    function approve(address _spender, uint256 _value) public\n        returns (bool success) {\n        allowance[msg.sender][_spender] = _value;\n        emit Approval(msg.sender, _spender, _value);\n        return true;\n    }\n\n    /**\n     * Set allowance for other address and notify\n     *\n     * Allows `_spender` to spend no more than `_value` tokens on your behalf, and then ping the contract about it\n     *\n     * @param _spender The address authorized to spend\n     * @param _value the max amount they can spend\n     * @param _extraData some extra information to send to the approved contract\n     */\n    function approveAndCall(address _spender, uint256 _value, bytes _extraData)\n        public\n        returns (bool success) {\n        tokenRecipient spender = tokenRecipient(_spender);\n        if (approve(_spender, _value)) {\n            spender.receiveApproval(msg.sender, _value, this, _extraData);\n            return true;\n        }\n    }\n\n    /**\n     * Destroy tokens\n     *\n     * Remove `_value` tokens from the system irreversibly\n     *\n     * @param _value the amount of money to burn\n     */\n    function burn(uint256 _value) public returns (bool success) {\n        require(balanceOf[msg.sender] >= _value);   // Check if the sender has enough\n        balanceOf[msg.sender] -= _value;            // Subtract from the sender\n        totalSupply -= _value;                      // Updates totalSupply\n        emit Burn(msg.sender, _value);\n        return true;\n    }\n\n    /**\n     * Destroy tokens from other account\n     *\n     * Remove `_value` tokens from the system irreversibly on behalf of `_from`.\n     *\n     * @param _from the address of the sender\n     * @param _value the amount of money to burn\n     */\n    function burnFrom(address _from, uint256 _value) public returns (bool success) {\n        require(balanceOf[_from] >= _value);                // Check if the targeted balance is enough\n        require(_value <= allowance[_from][msg.sender]);    // Check allowance\n        balanceOf[_from] -= _value;                         // Subtract from the targeted balance\n        allowance[_from][msg.sender] -= _value;             // Subtract from the sender's allowance\n        totalSupply -= _value;                              // Update totalSupply\n        emit Burn(_from, _value);\n        return true;\n    }\n\n    function getCurrentEthBlock() private view returns (uint256 blockAmount){\n        return block.number;\n    }\n\n    function getCurrentEzosBlock() public view returns (uint256){\n        uint256 eth = getCurrentEthBlock();\n        uint256 ezosBlock = eth - ezosGenesisBlock;\n        return ezosBlock;\n    }\n\n    function getCurrentMiningReward() public view returns(uint256 _miningReward){\n        return miningReward;\n    }\n\n     function getCurrentMasterNodeReward() public view returns(uint256 _miningReward){\n        return masternodeRate;\n    }\n\n    function getCurrentDif() public view returns (uint256 _dif){\n        return difficulty;\n    }\n\n    function adjustRewards() public {\n        uint256 _currentEzosBlock = getCurrentEzosBlock();\n\n        if(_currentEzosBlock > 10 && _currentEzosBlock <100){\n            miningReward = 40 * 10 ** uint256(decimals);\n            masternodeRate = 5;\n        }\n\n        if(_currentEzosBlock > 100 && _currentEzosBlock <1000){\n             miningReward = 30 * 10 ** uint256(decimals);\n            masternodeRate = 4;\n        }\n        if(_currentEzosBlock > 1000 && _currentEzosBlock <10000){\n             miningReward = 20 * 10 ** uint256(decimals);\n            masternodeRate = 3;\n        }\n\n    }\n\n    function adjustDifficulty(uint256 _diff) public onlyOwner  {\n        difficulty = _diff;\n    }\n}\n\n/*********************************/\n/*********** CALC LIB ************/\n/*********************************/\n\nlibrary SafeMath {\n\n  function mul(uint256 a, uint256 b) internal pure returns (uint256) {\n    if (a == 0) {\n      return 0;\n    }\n    uint256 c = a * b;\n    assert(c / a == b);\n    return c;\n  }\n\n  function div(uint256 a, uint256 b) internal pure returns (uint256) {\n    // assert(b > 0); // Solidity automatically throws when dividing by 0\n    uint256 c = a / b;\n    // assert(a == b * c + a % b); // There is no case in which this doesn't hold\n    return c;\n  }\n\n  function sub(uint256 a, uint256 b) internal pure returns (uint256) {\n    assert(b <= a);\n    return a - b;\n  }\n\n  function add(uint256 a, uint256 b) internal pure returns (uint256) {\n    uint256 c = a + b;\n    assert(c >= a);\n    return c;\n  }\n}\n",
  "sourcePath": "/Users/Shoxc/Desktop/ezos_dashboard/contracts/ezos.sol",
  "compiler": {
    "name": "solc",
    "version": "0.4.24+commit.e67f0147.Emscripten.clang"
  },
  "schemaVersion": "2.0.1",
  "updatedAt": "2018-08-12T20:11:23.531Z"
}